{
  "contractName": "MarketPlace",
  "abi": [
    {
      "inputs": [
        {
          "internalType": "string",
          "name": "_name",
          "type": "string"
        },
        {
          "internalType": "string",
          "name": "_image",
          "type": "string"
        },
        {
          "internalType": "string",
          "name": "_description",
          "type": "string"
        },
        {
          "internalType": "string",
          "name": "_category",
          "type": "string"
        },
        {
          "internalType": "uint256",
          "name": "_price",
          "type": "uint256"
        },
        {
          "internalType": "uint256",
          "name": "_countinstock",
          "type": "uint256"
        }
      ],
      "name": "addProduct",
      "outputs": [],
      "stateMutability": "nonpayable",
      "type": "function"
    },
    {
      "inputs": [
        {
          "internalType": "uint256",
          "name": "_index",
          "type": "uint256"
        }
      ],
      "name": "getAProduct",
      "outputs": [
        {
          "internalType": "address payable",
          "name": "",
          "type": "address"
        },
        {
          "internalType": "string",
          "name": "",
          "type": "string"
        },
        {
          "internalType": "string",
          "name": "",
          "type": "string"
        },
        {
          "internalType": "string",
          "name": "",
          "type": "string"
        },
        {
          "internalType": "string",
          "name": "",
          "type": "string"
        },
        {
          "internalType": "uint256",
          "name": "",
          "type": "uint256"
        },
        {
          "internalType": "uint256",
          "name": "",
          "type": "uint256"
        },
        {
          "internalType": "uint256",
          "name": "",
          "type": "uint256"
        },
        {
          "internalType": "uint256",
          "name": "",
          "type": "uint256"
        }
      ],
      "stateMutability": "view",
      "type": "function",
      "constant": true
    },
    {
      "inputs": [],
      "name": "getProducts",
      "outputs": [
        {
          "components": [
            {
              "internalType": "address payable",
              "name": "owner",
              "type": "address"
            },
            {
              "internalType": "string",
              "name": "name",
              "type": "string"
            },
            {
              "internalType": "string",
              "name": "image",
              "type": "string"
            },
            {
              "internalType": "string",
              "name": "description",
              "type": "string"
            },
            {
              "internalType": "string",
              "name": "category",
              "type": "string"
            },
            {
              "internalType": "uint256",
              "name": "price",
              "type": "uint256"
            },
            {
              "internalType": "uint256",
              "name": "sold",
              "type": "uint256"
            },
            {
              "internalType": "uint256",
              "name": "countinstock",
              "type": "uint256"
            },
            {
              "internalType": "uint256",
              "name": "timestamp",
              "type": "uint256"
            }
          ],
          "internalType": "struct MarketPlace.Product[]",
          "name": "",
          "type": "tuple[]"
        }
      ],
      "stateMutability": "view",
      "type": "function",
      "constant": true
    },
    {
      "inputs": [
        {
          "internalType": "uint256",
          "name": "_index",
          "type": "uint256"
        }
      ],
      "name": "buyProduct",
      "outputs": [],
      "stateMutability": "payable",
      "type": "function",
      "payable": true
    }
  ],
  "bytecode": "0x608060405273874069fa1eb16d44d622f2e0ca25eea172369bc16000806101000a81548173ffffffffffffffffffffffffffffffffffffffff021916908373ffffffffffffffffffffffffffffffffffffffff16021790555034801561006457600080fd5b506115fc806100746000396000f3fe60806040526004361061003f5760003560e01c80634a6899671461004457806361655e12146100895780638642269e146100b2578063c29b2f20146100ce575b600080fd5b34801561005057600080fd5b5061006b60048036038101906100669190610e8b565b6100f9565b60405161008099989796959493929190611163565b60405180910390f35b34801561009557600080fd5b506100b060048036038101906100ab9190610da2565b610434565b005b6100cc60048036038101906100c79190610e8b565b6105a6565b005b3480156100da57600080fd5b506100e36108f2565b6040516100f09190611243565b60405180910390f35b600060608060608060008060008060006001805490501161014f576040517f08c379a000000000000000000000000000000000000000000000000000000000815260040161014690611265565b60405180910390fd5b600060018b8154811061018b577f4e487b7100000000000000000000000000000000000000000000000000000000600052603260045260246000fd5b906000526020600020906009020190508060000160009054906101000a900473ffffffffffffffffffffffffffffffffffffffff168160010182600201836003018460040185600501548660060154876007015488600801548780546101f0906114c8565b80601f016020809104026020016040519081016040528092919081815260200182805461021c906114c8565b80156102695780601f1061023e57610100808354040283529160200191610269565b820191906000526020600020905b81548152906001019060200180831161024c57829003601f168201915b5050505050975086805461027c906114c8565b80601f01602080910402602001604051908101604052809291908181526020018280546102a8906114c8565b80156102f55780601f106102ca576101008083540402835291602001916102f5565b820191906000526020600020905b8154815290600101906020018083116102d857829003601f168201915b50505050509650858054610308906114c8565b80601f0160208091040260200160405190810160405280929190818152602001828054610334906114c8565b80156103815780601f1061035657610100808354040283529160200191610381565b820191906000526020600020905b81548152906001019060200180831161036457829003601f168201915b50505050509550848054610394906114c8565b80601f01602080910402602001604051908101604052809291908181526020018280546103c0906114c8565b801561040d5780601f106103e25761010080835404028352916020019161040d565b820191906000526020600020905b8154815290600101906020018083116103f057829003601f168201915b50505050509450995099509950995099509950995099509950509193959799909294969850565b600060016040518061012001604052803373ffffffffffffffffffffffffffffffffffffffff16815260200189815260200188815260200187815260200186815260200185815260200183815260200184815260200142815250908060018154018082558091505060019003906000526020600020906009020160009091909190915060008201518160000160006101000a81548173ffffffffffffffffffffffffffffffffffffffff021916908373ffffffffffffffffffffffffffffffffffffffff160217905550602082015181600101908051906020019061051a929190610c44565b506040820151816002019080519060200190610537929190610c44565b506060820151816003019080519060200190610554929190610c44565b506080820151816004019080519060200190610571929190610c44565b5060a0820151816005015560c0820151816006015560e082015181600701556101008201518160080155505050505050505050565b60008054906101000a900473ffffffffffffffffffffffffffffffffffffffff1673ffffffffffffffffffffffffffffffffffffffff166323b872dd336001848154811061061d577f4e487b7100000000000000000000000000000000000000000000000000000000600052603260045260246000fd5b906000526020600020906009020160000160009054906101000a900473ffffffffffffffffffffffffffffffffffffffff1660018581548110610689577f4e487b7100000000000000000000000000000000000000000000000000000000600052603260045260246000fd5b9060005260206000209060090201600501546040518463ffffffff1660e01b81526004016106b99392919061120c565b602060405180830381600087803b1580156106d357600080fd5b505af11580156106e7573d6000803e3d6000fd5b505050506040513d601f19601f8201168201806040525081019061070b9190610d79565b61074a576040517f08c379a000000000000000000000000000000000000000000000000000000000815260040161074190611285565b60405180910390fd5b6107a86001808381548110610788577f4e487b7100000000000000000000000000000000000000000000000000000000600052603260045260246000fd5b906000526020600020906009020160060154610c1890919063ffffffff16565b600182815481106107e2577f4e487b7100000000000000000000000000000000000000000000000000000000600052603260045260246000fd5b9060005260206000209060090201600601819055506108a060018281548110610834577f4e487b7100000000000000000000000000000000000000000000000000000000600052603260045260246000fd5b90600052602060002090600902016006015460018381548110610880577f4e487b7100000000000000000000000000000000000000000000000000000000600052603260045260246000fd5b906000526020600020906009020160070154610c2e90919063ffffffff16565b600182815481106108da577f4e487b7100000000000000000000000000000000000000000000000000000000600052603260045260246000fd5b90600052602060002090600902016007018190555050565b60606001805480602002602001604051908101604052809291908181526020016000905b82821015610c0f5783829060005260206000209060090201604051806101200160405290816000820160009054906101000a900473ffffffffffffffffffffffffffffffffffffffff1673ffffffffffffffffffffffffffffffffffffffff1673ffffffffffffffffffffffffffffffffffffffff1681526020016001820180546109a0906114c8565b80601f01602080910402602001604051908101604052809291908181526020018280546109cc906114c8565b8015610a195780601f106109ee57610100808354040283529160200191610a19565b820191906000526020600020905b8154815290600101906020018083116109fc57829003601f168201915b50505050508152602001600282018054610a32906114c8565b80601f0160208091040260200160405190810160405280929190818152602001828054610a5e906114c8565b8015610aab5780601f10610a8057610100808354040283529160200191610aab565b820191906000526020600020905b815481529060010190602001808311610a8e57829003601f168201915b50505050508152602001600382018054610ac4906114c8565b80601f0160208091040260200160405190810160405280929190818152602001828054610af0906114c8565b8015610b3d5780601f10610b1257610100808354040283529160200191610b3d565b820191906000526020600020905b815481529060010190602001808311610b2057829003601f168201915b50505050508152602001600482018054610b56906114c8565b80601f0160208091040260200160405190810160405280929190818152602001828054610b82906114c8565b8015610bcf5780601f10610ba457610100808354040283529160200191610bcf565b820191906000526020600020905b815481529060010190602001808311610bb257829003601f168201915b5050505050815260200160058201548152602001600682015481526020016007820154815260200160088201548152505081526020019060010190610916565b50505050905090565b60008183610c26919061136c565b905092915050565b60008183610c3c91906113c2565b905092915050565b828054610c50906114c8565b90600052602060002090601f016020900481019282610c725760008555610cb9565b82601f10610c8b57805160ff1916838001178555610cb9565b82800160010185558215610cb9579182015b82811115610cb8578251825591602001919060010190610c9d565b5b509050610cc69190610cca565b5090565b5b80821115610ce3576000816000905550600101610ccb565b5090565b6000610cfa610cf5846112d6565b6112a5565b905082815260208101848484011115610d1257600080fd5b610d1d848285611486565b509392505050565b600081519050610d3481611598565b92915050565b600082601f830112610d4b57600080fd5b8135610d5b848260208601610ce7565b91505092915050565b600081359050610d73816115af565b92915050565b600060208284031215610d8b57600080fd5b6000610d9984828501610d25565b91505092915050565b60008060008060008060c08789031215610dbb57600080fd5b600087013567ffffffffffffffff811115610dd557600080fd5b610de189828a01610d3a565b965050602087013567ffffffffffffffff811115610dfe57600080fd5b610e0a89828a01610d3a565b955050604087013567ffffffffffffffff811115610e2757600080fd5b610e3389828a01610d3a565b945050606087013567ffffffffffffffff811115610e5057600080fd5b610e5c89828a01610d3a565b9350506080610e6d89828a01610d64565b92505060a0610e7e89828a01610d64565b9150509295509295509295565b600060208284031215610e9d57600080fd5b6000610eab84828501610d64565b91505092915050565b6000610ec0838361106b565b905092915050565b610ed181611450565b82525050565b610ee081611408565b82525050565b610eef81611408565b82525050565b610efe816113f6565b82525050565b6000610f0f82611316565b610f198185611339565b935083602082028501610f2b85611306565b8060005b85811015610f675784840389528151610f488582610eb4565b9450610f538361132c565b925060208a01995050600181019050610f2f565b50829750879550505050505092915050565b6000610f8482611321565b610f8e818561134a565b9350610f9e818560208601611495565b610fa781611587565b840191505092915050565b6000610fbd82611321565b610fc7818561135b565b9350610fd7818560208601611495565b610fe081611587565b840191505092915050565b6000610ff8601a8361135b565b91507f596f7520646f6e2774206861766520616e792070726f647563740000000000006000830152602082019050919050565b600061103860108361135b565b91507f5472616e73666572206661696c65642e000000000000000000000000000000006000830152602082019050919050565b6000610120830160008301516110846000860182610ed7565b506020830151848203602086015261109c8282610f79565b915050604083015184820360408601526110b68282610f79565b915050606083015184820360608601526110d08282610f79565b915050608083015184820360808601526110ea8282610f79565b91505060a08301516110ff60a0860182611145565b5060c083015161111260c0860182611145565b5060e083015161112560e0860182611145565b5061010083015161113a610100860182611145565b508091505092915050565b61114e81611446565b82525050565b61115d81611446565b82525050565b600061012082019050611179600083018c610ee6565b818103602083015261118b818b610fb2565b9050818103604083015261119f818a610fb2565b905081810360608301526111b38189610fb2565b905081810360808301526111c78188610fb2565b90506111d660a0830187611154565b6111e360c0830186611154565b6111f060e0830185611154565b6111fe610100830184611154565b9a9950505050505050505050565b60006060820190506112216000830186610ef5565b61122e6020830185610ec8565b61123b6040830184611154565b949350505050565b6000602082019050818103600083015261125d8184610f04565b905092915050565b6000602082019050818103600083015261127e81610feb565b9050919050565b6000602082019050818103600083015261129e8161102b565b9050919050565b6000604051905081810181811067ffffffffffffffff821117156112cc576112cb611558565b5b8060405250919050565b600067ffffffffffffffff8211156112f1576112f0611558565b5b601f19601f8301169050602081019050919050565b6000819050602082019050919050565b600081519050919050565b600081519050919050565b6000602082019050919050565b600082825260208201905092915050565b600082825260208201905092915050565b600082825260208201905092915050565b600061137782611446565b915061138283611446565b9250827fffffffffffffffffffffffffffffffffffffffffffffffffffffffffffffffff038211156113b7576113b66114fa565b5b828201905092915050565b60006113cd82611446565b91506113d883611446565b9250828210156113eb576113ea6114fa565b5b828203905092915050565b600061140182611426565b9050919050565b600061141382611426565b9050919050565b60008115159050919050565b600073ffffffffffffffffffffffffffffffffffffffff82169050919050565b6000819050919050565b600061145b82611462565b9050919050565b600061146d82611474565b9050919050565b600061147f82611426565b9050919050565b82818337600083830152505050565b60005b838110156114b3578082015181840152602081019050611498565b838111156114c2576000848401525b50505050565b600060028204905060018216806114e057607f821691505b602082108114156114f4576114f3611529565b5b50919050565b7f4e487b7100000000000000000000000000000000000000000000000000000000600052601160045260246000fd5b7f4e487b7100000000000000000000000000000000000000000000000000000000600052602260045260246000fd5b7f4e487b7100000000000000000000000000000000000000000000000000000000600052604160045260246000fd5b6000601f19601f8301169050919050565b6115a18161141a565b81146115ac57600080fd5b50565b6115b881611446565b81146115c357600080fd5b5056fea2646970667358221220d1974504ea26b457f809b3d1b4306bd30688fb406110b613789273bef46caf6d64736f6c63430008000033",
  "immutableReferences": {},
  "source": "// SPDX-License-Identifier: GPL-3.0\r\n\r\npragma solidity >=0.7.0 <0.9.0;\r\n\r\nimport \"@openzeppelin/contracts/utils/math/SafeMath.sol\";\r\n\r\ninterface IERC20Token {\r\n  function transfer(address, uint256) external returns (bool);\r\n  function approve(address, uint256) external returns (bool);\r\n  function transferFrom(address, address, uint256) external returns (bool);\r\n  function totalSupply() external view returns (uint256);\r\n  function balanceOf(address) external view returns (uint256);\r\n  function allowance(address, address) external view returns (uint256);\r\n\r\n  event Transfer(address indexed from, address indexed to, uint256 value);\r\n  event Approval(address indexed owner, address indexed spender, uint256 value);\r\n}\r\n\r\ncontract MarketPlace {\r\n    using SafeMath for uint;\r\n    address internal cUsdTokenAddress = 0x874069Fa1Eb16D44d622F2e0Ca25eeA172369bC1;\r\n    \r\n    struct Product {\r\n        address payable owner;\r\n        string name;\r\n        string image;\r\n        string description;\r\n        string category;\r\n        uint price;\r\n        uint sold;\r\n        uint countinstock;\r\n        uint timestamp;\r\n    }\r\n\r\n    Product[] products;\r\n\r\n    function addProduct (\r\n        string memory _name, \r\n        string memory _image, \r\n        string memory _description, \r\n        string memory _category, \r\n        uint _price, \r\n        uint _countinstock\r\n    ) public {\r\n        uint _sold = 0;\r\n        products.push(Product(\r\n            payable(msg.sender), \r\n            _name,\r\n            _image, \r\n            _description, \r\n            _category, \r\n            _price, \r\n            _sold, \r\n            _countinstock, \r\n            block.timestamp\r\n        ));\r\n    }\r\n\r\n    function getAProduct (uint _index) public view returns (\r\n        address payable, \r\n        string memory, \r\n        string memory, \r\n        string memory, \r\n        string memory, \r\n        uint, \r\n        uint, \r\n        uint, \r\n        uint\r\n    ){\r\n        require(products.length > 0, \"You don't have any product\");\r\n        Product storage productGotten = products[_index];\r\n        return (\r\n            productGotten.owner, \r\n\t\t\tproductGotten.name, \r\n\t\t\tproductGotten.image, \r\n\t\t\tproductGotten.description, \r\n\t\t\tproductGotten.category, \r\n\t\t\tproductGotten.price,\r\n\t\t\tproductGotten.sold,\r\n            productGotten.countinstock,\r\n            productGotten.timestamp\r\n            );\r\n    }\r\n\r\n    function getProducts () public view returns (Product[] memory){\r\n        return products;\r\n    }\r\n\r\n    function buyProduct(uint _index) public payable  {\r\n\t\trequire(\r\n\t\t  IERC20Token(cUsdTokenAddress).transferFrom(\r\n\t\t\tmsg.sender,\r\n\t\t\tproducts[_index].owner,\r\n\t\t\tproducts[_index].price\r\n\t\t  ),\r\n\t\t  \"Transfer failed.\"\r\n\t\t);\r\n\t\tproducts[_index].sold = products[_index].sold.add(1);\r\n        products[_index].countinstock = products[_index].countinstock.sub(products[_index].sold);\r\n\r\n\t}\r\n}",
  "sourcePath": "C:\\Users\\Valo_da_great\\Desktop\\learning\\celo\\contracts\\MarketPlace.sol",
  "compiler": {
    "name": "solc",
    "version": "0.8.0+commit.c7dfd78e.Emscripten.clang"
  },
  "schemaVersion": "3.4.4",
  "updatedAt": "2022-01-23T16:35:25.790Z",
  "networkType": "ethereum",
  "devdoc": {
    "kind": "dev",
    "methods": {},
    "version": 1
  },
  "userdoc": {
    "kind": "user",
    "methods": {},
    "version": 1
  }
}